:100000000C9434000C9451000C9451000C94510049
:100010000C9451000C9451000C9451000C9451001C
:100020000C9451000C9451000C9451000C9451000C
:100030000C9451000C9451000C9451000C945100FC
:100040000C9451000C9451000C9451000C945100EC
:100050000C9451000C9451000C9451000C945100DC
:100060000C9451000C94510011241FBECFEFD8E026
:10007000DEBFCDBF11E0A0E0B1E0ECE9F1E002C0ED
:1000800005900D92A430B107D9F711E0A4E0B1E0DA
:1000900001C01D92A331B107E1F70E94C3000C9487
:1000A000CC000C9400008091BC0087FF6BC0809155
:1000B000B90090E0887F90708838910509F45BC0A2
:1000C0008938910594F48036910521F181369105A6
:1000D00024F4892B09F453C008958836910579F1E9
:1000E0008038910509F04EC01BC0883B910599F1FD
:1000F000893B910544F4803A9105E9F1883A9105EC
:1001000009F040C020C0803C9105A9F1883C9105D0
:10011000C9F531C084EC8093BC00109204010895AD
:10012000809104019091BB00E82FF0E0E95FFE4F61
:1001300090838F5F809304018C30E8F01AC081E0D7
:100140008093060118C081E0809305018091000131
:100150008093BB0010C080910501E82FF0E0E050D3
:10016000FF4F90819093BB008F5F80930501833098
:1001700010F084E801C084EC8093BC00089584ED05
:100180008093BC00089588E28093BA0084E4809351
:0C019000BC000E945300FDCFF894FFCF8C
:04019C0012345600C3
:00000001FF
