:1000000000308A00FE280000FF00030E8301A100DB
:100010000A08A0008A010408A2007708A300780853
:10002000A4007908A5007A08A600831383128C30F7
:100030008400801D1D288C192E2822088400230886
:10004000F7002408F8002508F9002608FA0020081F
:100050008A00210E8300FF0E7F0E09008A110A120A
:1000600031288316941A3C288312AC018316141D80
:100070003C288312AC17831683122C08AC0AAB0001
:10008000AB08031947282B08803C031D4C28141388
:100090008C1D4828130814162B087F3C03185E2873
:1000A0002808B2003208930014168C118316141815
:1000B0005728F8018312141AF80A6C28AB080319A0
:1000C0006C2801302B02283E8400831314138C1DEE
:1000D00067281308141680008C118A110A121D2833
:1000E000F630EC3A6510E939A012730500002E30A5
:1000F00084008313000803198A280230F800F701EE
:10010000F70B8028F80B7F289730F700F70B86282D
:10011000800B7D288A110A1233290B08AE008B133D
:10012000831603178C170C14000000000318C02856
:1001300083120C087F390313AF0003170D08031354
:10014000B00003170F080313B1002F080C1EA628D8
:100150009900300803178D000313310803178F002F
:1001600083168C170C140000000083120313AD0BD0
:10017000BA28BD2883160317C028E0288316031762
:1001800083120C0D0E0D7F390313AF0003170D08FA
:100190000313B00003170F080313B1002F080C1E40
:1001A000CF289900300803178D0003133108031777
:1001B0008F008D0A03198F0A03100313AD0B9028CB
:1001C000AE1B8B178A110A123F2980080319FB28DE
:1001D000AE010408AD002E10831B2E1400080C1E67
:1001E000EF2899002D08840083132E188317840AA2
:1001F0000319850AE5288A110A12432903081F39C1
:1002000083000C3083169900A2309800903083123E
:100210009800FF30A700A7152708831687008312D0
:10022000271627088316870016309300363083126E
:1002300094008316111403308312AC0083161F142C
:100240009F141F159F1107309C0083138C15C0301D
:1002500083128B0400308316880004308312AD00B3
:10026000FA30AE007728AD0B3029703003178D00BF
:1002700000308F00031009300313AD008D282830A3
:1002800084008313E5280A300C1E44299900831644
:040290002D296300B1
:02400E00323F3F
:00000001FF
;PIC16F877A
;CRC=9DB5  CREATED="17-Jul-14 17:31"
