:1000000001308A0032290000FF00030E8301A100A5
:100010000A08A0008A010408A2007708A300780853
:10002000A4007908A5007A08A600831383128C30F7
:100030008400801D1D288C192E2822088400230886
:10004000F7002408F8002508F9002608FA0020081F
:100050008A00210E8300FF0E7F0E09008A110A120A
:1000600031288316941A3C288312AD018316141D7F
:100070003C288312AD17831683122D08AD0AAB00FE
:10008000AB08031947282B08803C031D4C28141388
:100090008C1D4828130814162B087F3C03185E2873
:1000A0002808B3003308930014168C118316141813
:1000B0005728F8018312141AF80AA028AB0803196C
:1000C000A02801302B02283E8400831314138C1DBA
:1000D000672813081416800001302B02283E840084
:1000E00083130008483C031D7A28831605108312E9
:1000F0000514A02801302B02283E84008313000839
:100100004C3C031D88288316051083120510A02877
:1001100001302B02283E840083130008433C031D5A
:1001200094280130AC00A0282C0BA02801302B0211
:10013000283E840083130008831693008312AC01C9
:100140008C118A110A121D28F630EC3A6510E93933
:10015000A012730500002F308400831300080319D8
:10016000BE280230F800F701F70BB428F80BB328CB
:100170009730F700F70BBA28800BB1288A110A12C2
:1001800069290B08AF008B13831603178C170C1407
:10019000000000000318F42883120C087F390313B1
:1001A000B00003170D080313B10003170F08031362
:1001B000B20030080C1EDA289900310803178D00B0
:1001C0000313320803178F0083168C170C140000DA
:1001D000000083120313AE0BEE28F12883160317D9
:1001E000F42814298316031783120C0D0E0D7F3982
:1001F0000313B00003170D080313B10003170F0812
:100200000313B20030080C1E0329990031080317AC
:100210008D000313320803178F008D0A03198F0A0C
:1002200003100313AE0BC428AF1B8B178A110A12DD
:100230007529800803192F29AF010408AE002F107B
:10024000831B2F1400080C1E232999002E088400FC
:1002500083132F188317840A0319850A19298A1111
:100260000A12792903081F3983000C30831699007C
:10027000A2309800903083129800FF30A700A71595
:1002800027088316870083122716270883168700FE
:1002900016309300363083129400831611148312A3
:1002A000AC010330AD0083161F149F141F159F115E
:1002B00007309C0083138C15C03083128B040030F0
:1002C00083168800850004308312AE00FA30AF0038
:1002D000AB28AE0B6629A43003178D0000308F00C9
:1002E000031009300313AE00C128283084008313A3
:1002F00019290A300C1E7A29990083166329630094
:02400E00323F3F
:00000001FF
;PIC16F877A
;CRC=D7FA  CREATED="06-Aug-14 09:59"
