:0400000020EF01F0FC
:08000800046ED8CF05F0E0CF33
:1000100006F00001E9CF0CF0EACF07F0E1CF08F0DD
:10002000E2CF09F0D9CF0AF0DACF0BF0F3CF12F01C
:10003000F4CF13F0FACF14F000C00EF001C00FF0AF
:1000400002C010F003C011F09DA62AEF00F09EB68A
:10005000D6EF00F00EC000F00FC001F010C002F0AB
:1000600011C003F00CC0E9FF07C0EAFF078E08C00B
:10007000E1FF09C0E2FF0AC0D9FF0BC0DAFF12C0DE
:10008000F3FF13C0F4FF14C0FAFF045006C0E0FFF2
:1000900005C0D8FF1000C9501DC0C9FFC6889E9674
:1000A000C7B0FED7016AC6B8012AEEEF00F0EA6ACF
:1000B0001E0EE96EEF500EE0010E016E006A002E7A
:1000C000FED7012EFBD74A0E006E002EFED700D0C1
:1000D000EF2EF2D71200E00E936E8A88140E1D6E7A
:1000E000FA0E1E6EE4DF1D2EFBD7E00E936E8A988B
:1000F00003EF01F0E00E936E8A80936E8A82936E16
:100100008A84936E8A861200E00E936E8A90936EB4
:100110008A82936E8A84936E8A961750740808E1D7
:10012000140E1D6EFA0E1E6EC2DF1D2EFBD7E2DF0F
:100130001DEF01F0E00E936E8A80936E8A92936EAB
:100140008A94936E8A861750740808E1140E1D6E07
:10015000FA0E1E6EACDF1D2EFBD7CCDF1DEF01F0BB
:10016000E00E936E8A90936E8A82936E8A94936E59
:100170008A86140E1D6EFA0E1E6E99DF1D2EFBD799
:10018000B9DF1DEF01F0E00E936E8A80936E8A92C4
:10019000936E8A84936E8A96140E1D6EFA0E1E6EEE
:1001A00086DF1D2EFBD7A6DF1DEF01F0C7BA03D0F7
:1001B0001A6AC7B41A8E1A501A2A196E195203E015
:1001C0001950800805E1C69C9EA6FED7C950C68876
:1001D00019507F0804E217C01DF05DD72ED01952C8
:1001E0002CE0010E195C036A170FE96E000E032064
:1001F000EA6EC69C9EA6FED7C950C688EF6E175001
:10020000730802E168D719D01950020816E1185096
:10021000010A09E0030A09E0010A09E0070A09E006
:10022000010A09E00AD070D708D084D706D098D741
:1002300004D0A9D702D05EDF00D09E962AEF00F04E
:10024000F86AD09E078E94869488140EC86E360E77
:10025000C66EC580030E1A6EC180C182C184C1966C
:10026000000E0609CA6EFF0ECB6E94948B940C0E92
:10027000BD6E94928B92BA6EBE68BD50CF0B1009C2
:10028000BD6EBB68BA50CF0B1009BA6E9D86C00E0A
:10029000F212000E936EE00E936E8A88040E1B6EAF
:1002A000166AF2BE168EF29EFA0E1E6E00DF16BEA3
:1002B000F28E1B2EF5D7E00E936E8A98040E1B6EFD
:1002C000166AF2BE168EF29EFA0E1E6EF0DE16BE94
:0A02D000F28E1B2EF5D7DFD70300D6
:020000040030CA
:0E00000000210C0E000181000FC00FE00F4028
:00000001FF
;PIC18F452
;CRC=C9FA  CREATED="02-Sep-14 09:48"
