:04000000C4EF00F059
:08000800046ED8CF05F0E0CF33
:1000100006F00001E9CF0CF0EACF07F0E1CF08F0DD
:10002000E2CF09F0D9CF0AF0DACF0BF0F3CF12F01C
:10003000F4CF13F0FACF14F000C00EF001C00FF0AF
:1000400002C010F003C011F09DA62AEF00F09EB68A
:1000500057EF00F00EC000F00FC001F010C002F02A
:1000600011C003F00CC0E9FF07C0EAFF078E08C00B
:10007000E1FF09C0E2FF0AC0D9FF0BC0DAFF12C0DE
:10008000F3FF13C0F4FF14C0FAFF045006C0E0FFF2
:1000900005C0D8FF1000C9501EC0C9FFC6889E9673
:1000A000C7B0FED7016AC6B8012A80EF00F0C7BA10
:1000B00003D01A6AC7B41A8E1A501A2A196E195226
:1000C00003E01950800805E1C69C9EA6FED7C950E2
:1000D000C68819507F0804E216C01EF0DCD710D085
:1000E00019520EE0010E195C036A160FE96E000E3C
:1000F0000320EA6EC69C9EA6FED7C950C688EF6E46
:100100009E962AEF00F076616C7565206973202554
:10011000730A0000EA6A1C0EE96EEF500EE0010E51
:10012000016E006A002EFED7012EFBD74A0E006E2C
:10013000002EFED700D0EF2EF2D7E7EF00F0090037
:10014000F6CF1CF0F7CF1DF0F5509EA8FED7AD6E90
:100150001CC0F6FF1DC0F7FF1B2EF1D7F0EF00F01B
:10016000EF5210E0EACF1CF0E9CF1BF0EF509EA851
:10017000FED7AD6E1CC0EAFF1BC0E9FFE92AD8B468
:10018000EA2AEED7F4EF00F0F86AD09E078E190E37
:10019000AF6EA60EAC6E900EAB6E94869488150E64
:1001A000C86E360EC66EC580030E1A6EC180C1823F
:1001B000C184C196300EC86E9D86C00EF212000E2C
:1001C000956EB16A040E1B6EFA0E1C6EA3D71B2E21
:1001D000FBD7060EF66E010EF76E090E1B6EAFD73B
:1001E000EA6A160EE96EBCD70A0E9EA8FED7AD6E5F
:0401F000E9D7030048
:020000040030CA
:0E00000000210C0E000181000FC00FE00F4028
:00000001FF
;PIC18F452
;CRC=A04A  CREATED="26-Jul-14 19:48"
