:040000008DEF00F090
:1000080000C015F09EA61DD081789E96C7A406D084
:1000180028C0C9FFC688C9CF26F015D0C7B003D0FD
:10002800C9CF26F010D0C7AA0CD0C9CF27F027C057
:1000380028F0C9CF26F027C029F0000E2A6E38D83C
:0C00480002D0C9CF26F015C000F0110056
:10005400AA0E1E6E000E1F6E2D0E206E000E216E57
:10006400FF0E226EFF0E236E000E246E000E256E10
:10007400FF0E166EFF0E176E000E186E000E196E30
:10008400FF0E1A6EFF0E1B6E000E1C6E000E1D6E10
:10009400AC8A900EAB6E948E949C9EAA03D0AECF85
:0600A40000F0FBD7120082
:0E00AA00ACB202D00000FCD72DC0ADFF12009A
:1000B8002C6A29C0E9FF2AC0EAFFEECF2BF02B50AB
:1000C800000A0DE02BC02DF0ECDF2C2A2C5029243F
:1000D800E96E000E2A20EA6EEECF2BF0F0D7120060
:1000E800C16A926A936AFF0E946E040EC86E360E49
:1000F800C66E9D86C00EF26E330EAF6EAC84A6DF60
:020108001200E3
:10010A000900F5CFE6FF0006FBE10106F9E112005E
:10011A00E6DF030E0B6E8A0E0C6E550E0D6E0D2E5B
:10012A00FED70C2EFCD70B2EFAD700000000F1D711
:02013A00FFD7ED
:020000040030CA
:0D000100220F0EFF0181FF0FC00FE00F4026
:00000001FF
